{
  "transactions": [
    {
      "hash": "0x2a8eff851201f962db85f1f799e13fd2ad5472a34f19777d9aa46756e6430688",
      "transactionType": "CALL",
      "contractName": null,
      "contractAddress": "0xf1815bd50389c46847f0bda824ec8da914045d14",
      "function": "approve(address,uint256)",
      "arguments": [
        "0xC0915573ceCE1E73F5E15A0749875603fbb63746",
        "10000"
      ],
      "transaction": {
        "from": "0x315f84f1c14676b240b13fa675db2dec4ba7bdb9",
        "to": "0xf1815bd50389c46847f0bda824ec8da914045d14",
        "gas": "0xcec8",
        "value": "0x0",
        "input": "0x095ea7b3000000000000000000000000c0915573cece1e73f5e15a0749875603fbb637460000000000000000000000000000000000000000000000000000000000002710",
        "nonce": "0xd",
        "chainId": "0x2eb"
      },
      "additionalContracts": [],
      "isFixedGasLimit": false
    },
    {
      "hash": "0xd9fb28401678fba49e91571f55da3cbefb582c5503a1cca9724c113cd0354f2c",
      "transactionType": "CALL",
      "contractName": null,
      "contractAddress": "0xc0915573cece1e73f5e15a0749875603fbb63746",
      "function": "createPutOpt(uint256,uint256,uint256,address,uint256)",
      "arguments": [
        "10000",
        "1000",
        "1751808072",
        "0xF1815bd50389c46847f0Bda824eC8da914045D14",
        "10000"
      ],
      "transaction": {
        "from": "0x315f84f1c14676b240b13fa675db2dec4ba7bdb9",
        "to": "0xc0915573cece1e73f5e15a0749875603fbb63746",
        "gas": "0x4f04d",
        "value": "0x0",
        "input": "0x5eb28058000000000000000000000000000000000000000000000000000000000000271000000000000000000000000000000000000000000000000000000000000003e800000000000000000000000000000000000000000000000000000000686a7848000000000000000000000000f1815bd50389c46847f0bda824ec8da914045d140000000000000000000000000000000000000000000000000000000000002710",
        "nonce": "0xe",
        "chainId": "0x2eb"
      },
      "additionalContracts": [],
      "isFixedGasLimit": false
    }
  ],
  "receipts": [
    {
      "status": "0x1",
      "cumulativeGasUsed": "0x95b5",
      "logs": [
        {
          "address": "0xf1815bd50389c46847f0bda824ec8da914045d14",
          "topics": [
            "0x8c5be1e5ebec7d5bd14f71427d1e84f3dd0314c0f7b2291e5b200ac8c7c3b925",
            "0x000000000000000000000000315f84f1c14676b240b13fa675db2dec4ba7bdb9",
            "0x000000000000000000000000c0915573cece1e73f5e15a0749875603fbb63746"
          ],
          "data": "0x0000000000000000000000000000000000000000000000000000000000002710",
          "blockHash": "0x8d93ab2278959402ba01b8fbdd4f62e6d55a171686a5a8012350aed6cec9db2b",
          "blockNumber": "0x1f21dfe",
          "transactionHash": "0x2a8eff851201f962db85f1f799e13fd2ad5472a34f19777d9aa46756e6430688",
          "transactionIndex": "0x0",
          "logIndex": "0x0",
          "removed": false
        }
      ],
      "logsBloom": "0x00000000000000000000000000000000000000000000000000000000000000000000000000000000000000000000000000000000000000000001000000200000000000000000800000000000000000000000000800000000000000000000000000000000000200000000000000000000000000000000000000000000000000000000000000000000000000000000000000000000000000000000000000000010020000000000000000080000000000000000000000400000000000000000000000000000000000000000000000000000000800000000000000000000000000000010000000000000000000000000000000000000000100000000000000000000",
      "type": "0x2",
      "transactionHash": "0x2a8eff851201f962db85f1f799e13fd2ad5472a34f19777d9aa46756e6430688",
      "transactionIndex": "0x0",
      "blockHash": "0x8d93ab2278959402ba01b8fbdd4f62e6d55a171686a5a8012350aed6cec9db2b",
      "blockNumber": "0x1f21dfe",
      "gasUsed": "0x95b5",
      "effectiveGasPrice": "0x5f5e100",
      "from": "0x315f84f1c14676b240b13fa675db2dec4ba7bdb9",
      "to": "0xf1815bd50389c46847f0bda824ec8da914045d14",
      "contractAddress": null
    }
  ],
  "libraries": [],
  "pending": [],
  "returns": {},
  "timestamp": 1751721807,
  "chain": 747,
  "commit": "da98b51"
}